:020000040800F2
:1000000000000220511C0008710900087309000853
:100010007509000877090008790900080000000048
:100020000000000000000000000000007B09000844
:100030007D090008000000007F0900088109000810
:10004000A11C0008A11C0008A11C0008A11C00089C
:10005000A11C0008A11C0008A11C0008A11C00088C
:10006000A11C0008A11C0008A11C0008A11C00087C
:10007000A11C0008A11C0008A11C0008A11C00086C
:10008000A11C0008A11C0008A11C0008A11C00085C
:10009000A11C0008A11C0008A11C0008A11C00084C
:1000A000A11C0008A11C0008A11C0008A11C00083C
:1000B000A11C0008A11C0008A11C0008A11C00082C
:1000C000A11C0008A11C0008A11C0008A11C00081C
:1000D000A11C0008A11C0008A11C0008A11C00080C
:1000E000A11C0008A11C000800000000A11C0008C1
:1000F000A11C0008A11C0008A11C0008A11C0008EC
:10010000A11C0008A11C0008A11C0008A11C0008DB
:10011000A11C0008A11C0008A11C0008A11C0008CB
:10012000A11C0008A11C0008A11C0008A11C0008BB
:10013000A11C0008A11C0008A11C0008A11C0008AB
:1001400000000000000000000000000000000000AF
:10015000A11C0008A11C0008A11C0008A11C00088B
:10016000A11C0008A11C0008A11C0008A11C00087B
:10017000A11C0008A11C0008A11C0008A11C00086B
:10018000A11C0008A11C0008A11C0008A11C00085B
:10019000A11C0008A11C0008A11C0008A11C00084B
:1001A000A11C0008A11C0008A11C0008A11C00083B
:1001B000A11C0008A11C0008A11C0008A11C00082B
:1001C000A11C0008A11C0008A11C0008A11C00081B
:1001D000A11C0008A11C0008A11C0008A11C00080B
:1001E000A11C0008A11C0008A11C0008A11C0008FB
:1001F000A11C0008A11C0008A11C0008A11C0008EB
:10020000A11C0008A11C0008A11C0008A11C0008DA
:10021000A11C0008A11C0008A11C0008A11C0008CA
:10022000A11C0008A11C0008A11C0008000000007F
:10023000A11C0008A11C000800000000A11C00086F
:10024000A11C0008A11C0008A11C0008A11C00089A
:10025000A11C0008A11C0008A11C0008A11C00088A
:10026000A11C0008A11C0008A11C0008A11C00087A
:10027000A11C0008A11C0008A11C0008000000002F
:10028000A11C0008A11C0008A11C0008000000001F
:1002900000000000A11C000810B5054C237833B9FC
:1002A000044B13B10448AFF300800123237010BD49
:1002B0003C04002000000000081E000808B5034BA5
:1002C0001BB103490348AFF3008008BD00000000E4
:1002D00040040020081E000880B59CB0BFF34F8F7B
:1002E000BFF36F8F684B0021C3F85012BFF34F8FDD
:1002F000BFF36F8F5A6942F400325A61BFF34F8FD8
:10030000BFF36F8FC3F88410BFF34F8FD3F88020F3
:1003100043F6E076C2F3C904C2F34E32A507520198
:1003200002EA060C284621464CEA0007013900F192
:100330004040C3F860724F1CF6D1203A12F1200FF2
:10034000EED1BFF34F8F5A6942F480325A61BFF346
:100350004F8FBFF36F8F00F079FB022000F016FD86
:1003600000230093494BDA6A22F00102DA62DB6A69
:1003700003F001030093464B9A6942F440429A61AC
:100380009A6902F440420092009A9A699404FCD55A
:100390004FF480334FF0010E0520A02102220424E7
:1003A00008251692189217941995CDE909E30023B0
:1003B000CDE9140109A80C9310931B931A93CDE96E
:1003C000122201F005F800B1FEE703234FF03F0CC5
:1003D0004FF480622146CDE901C34023CDE90305F6
:1003E00001A8CDE90533CDE9072301F00DFB00B1EC
:1003F000FEE700F0BBF900B1FEE7BFF34F8FBFF39C
:100400006F8F214B5A6922F400325A61C3F85002AF
:10041000BFF34F8FBFF36F8FC3F88400BFF34F8FCD
:100420005A6922F480325A61BFF34F8FD3F880208B
:1004300043F6E076C2F3C904C2F34E32A507520177
:1004400002EA060C284621464CEA0007013900F171
:100450004040C3F874724F1CF6D1203A12F1200FBD
:10046000EED1BFF34F8FBFF36F8F0A4B00221A609C
:10047000094B0A4A1B6813604FF01042126882F35E
:1004800008889847FEE700BF00ED00E00004005830
:100490000048025810E000E00400009058040020DA
:1004A0007B4B2DE9F04FD3F8D42091B0794D09243E
:1004B00042F480420026784F0BA9C3F8D420284686
:1004C000D3F8D4204FF040084FF00A0BDFF8D0A14A
:1004D00002F480424FF400790092009ADA6F42F4FD
:1004E0008042DA67DA6F22F48042DA67D3F8E020DC
:1004F00042F02002C3F8E020D3F8E02002F020020E
:100500000192019AD3F8E02042F00802C3F8E020FB
:10051000D3F8E02002F008020292029AD3F8E02019
:1005200042F02002C3F8E020D3F8E02002F02002DD
:100530000392039AD3F8E02042F02002C3F8E020AF
:10054000D3F8E02002F020020492049AD3F8E020CD
:1005500042F02002C3F8E020D3F8E02002F02002AD
:100560000592059AD3F8E02042F04002C3F8E0205B
:10057000D3F8E02002F040020692069AD3F8E02079
:1005800042F08002C3F8E020D3F8E02002F08002BD
:100590000792079AD3F8E02042F08002C3F8E020E7
:1005A000D3F8E02002F080020892089AD3F8E02005
:1005B00042F04002C3F8E020D3F8E02002F040020D
:1005C0000992099AD3F8E02042F04002C3F8E020F3
:1005D0004FF48062D3F8E03003F040030A930A9BA3
:1005E0000223CDE90B230323CDE90D630F9400F023
:1005F000DBFA01230BA93846CDF82C800D93CDF8FA
:100600003CB000F0D1FA4FF400630BA923480B93E0
:100610000D960F9400F0C8FA04230BA950460F94CE
:100620000B9300F0C1FA0BA92846CDF82C90CDF819
:100630003CB000F0B9FA08230BA950460F940B9375
:1006400000F0B2FA80230BA928460F940B9300F018
:10065000ABFA0BA93846CDF82C9000F0A5FA0BA9FF
:100660002846CDF82C8000F09FFA4FF480430BA968
:1006700038460B9300F098FA32460F215C2000F0C8
:100680003DFA5C2000F06CFA11B0BDE8F08F00BFBD
:10069000004402580014025800180258000C025876
:1006A000001C025800B54FF4407395B04FF04072F3
:1006B00011480C9305230F920222069300230B92FC
:1006C00006A913930093049303926A46CDE90D3370
:1006D000CDE91133102302934FF48003059340F2C8
:1006E0000113019341F2883300F0D9FD003018BFA7
:1006F000012015B05DF804FB5C04002000B54FF448
:10070000407395B041F2883217480C93062306A92E
:1007100006930023CDE90D330F930B931393CDE98B
:10072000113300F0BCFCE8B940F2022302224FF47E
:10073000800104900C48CDE900331023CDE902324A
:1007400005236A46CDE905134FF0407306A90F93C0
:1007500041F2883300F0A3FD003018BF012015B02E
:100760005DF804FB0120FAE75C0400202DE9F0436A
:100770007D4C9DB07D4B2046236000F074FC074605
:1007800008B10124ECE0FFF78BFE01250323C4E947
:1007900001351023E3604FF0006393FAA3F3B3FA3B
:1007A00083F34FF440762046E761013B2361402309
:1007B000C4E90567236200F0F7FB0028E1D14FF49C
:1007C00080774FF06609099041F2883205906946BA
:1007D0000D900697CDF80090CDE90700CDE90B000C
:1007E000204600F05CFC0028CBD14FF0990841F284
:1007F000883269462046CDF8008000F050FC002881
:10080000BFD141F28832694620460696CDF8009065
:1008100000F045FC0028B4D141F2883269462046F8
:10082000CDF8008000F03BFC0028AAD135231790BA
:10083000139041F288321B900EA914970E93CDE9C4
:100840001500CDE91900204600F029FC002898D1B8
:10085000FFF728FF002894D1B723149617900E9322
:1008600013901B90CDE91500CDE91900FFF746FF65
:10087000002886D141F288320EA9204600F00FFCF4
:1008800000287FF47EAFFFF70DFF00287FF479AFDB
:1008900085234FF440764FF04075ADF800000E937D
:1008A0000223139041F288320EA914961795CDE9D0
:1008B0001500CDE91830CDE91A002B4800F0EFFB08
:1008C00000287FF45EAF41F288326946264800F086
:1008D00085FC00287FF455AFFFF710FF0446002881
:1008E0007FF44FAF812341F288320EA91E480E9348
:1008F000BDF8003023F0F0031B051B0D43F400434B
:1009000043F08003ADF8003000F0C9FB00287FF40D
:1009100038AF41F288326946134800F003FC0028E2
:100920007FF42FAFED236A460EA90F480E934FF4C4
:1009300040631B9415934FF4405314961193052371
:10094000CDE9164513934FF000454FF08043CDE9B4
:100950000044CDE9195300F0F7FC002818BF01242A
:1009600020461DB0BDE8F0835C040020005000521A
:100970007047FEE7FEE7FEE7FEE770477047704707
:1009800000F092B81849194810B5D1F8883043F4EE
:100990007003C1F88830164B1A6842F001021A60E1
:1009A00000221A611C68204018609A61DA611A629C
:1009B0009A62DA621A635A639A63DA631A645A644F
:1009C000186820F4802018601A660A4B1B681B0CFC
:1009D0001B04B3F1005F02D2074B01221A604FF0F3
:1009E00000638B6010BD00BF00ED00E07FEDF6EA14
:1009F000004402580010005C08810051704700005C
:100A000038B50F4B0546187808B9012038BD4FF4AA
:100A10007A730C4AB3FBF0F31068B0FBF3F000F00C
:100A2000ADF804460028F0D10F2DEED80246294635
:100A30004FF0FF3000F062F8034B20461D60E5E701
:100A400008000020000000200C00002010B503204A
:100A500000F042F800F03CFF0F49104A8B69C3F3E5
:100A60000323D35C03F01F03D8400D4B18608B6940
:100A700003F00F03D35C03F01F03D840094B186049
:100A80000F20FFF7BDFF044618B9FFF7B7FF204658
:100A900010BD0124FBE700BF00440258201E0008DF
:100AA0000000002004000020034A044B11681B785A
:100AB0000B441360704700BFA8040020080000200A
:100AC000014B1868704700BFA8040020014B18684C
:100AD000000C70470010005C074A0002D36800F465
:100AE000E06023F4E0631B041B0C43F0BF6343F49A
:100AF00000330343D360704700ED00E0164B70B540
:100B0000DC684FF0FF36C4F30224C4F10705231D4F
:100B1000042D28BF0425062B06FA05F38CBF033CE1
:100B20000024002821EA030303FA04F306FA04F47C
:100B300022EA040443EA04034FEA0313DBB206DBB0
:100B400000F1604000F5614080F8003370BD00F0B6
:100B50000F00024A1354F9E700ED00E014ED00E045
:100B6000002808DB4209012300F01F0003FA00F00F
:100B7000014B43F82200704700E100E00138B0F17A
:100B8000807F0AD2064BF021064A5860002082F886
:100B90002310072298601A6070470120704700BF39
:100BA00010E000E000ED00E04FF0B04C00232DE934
:100BB000F74F724EE246DFF8D0B10A6832FA03F41A
:100BC00002D103B0BDE8F08F4FF0010E0EFA03FE24
:100BD0001EEA020200F0BD804C6824F01004022CD2
:100BE00014D14FEAD30803F007090F2500EB88085A
:100BF0004FEA8909D8F8204005FA09F524EA0505E5
:100C00000C6904FA09F42C43C8F820404FEA430861
:100C10004FF003094C6809FA08F9056804F0030469
:100C20006FEA090904FA08F409EA05052C4304608F
:100C30004D6825F01005013D012D11D88468CD685F
:100C400009EA040405FA08F525438560446824EAA6
:100C50000E0E4C68C4F300149C4044EA0E04446039
:100C6000C46809EA04098C6804FA08F444EA09042F
:100C7000C4604C68E4006CD5414D03F0030E4FF0A6
:100C80000F08D5F8F4404FEA8E0E44F00204C5F880
:100C9000F440D5F8F44023F0030505F1B04504F025
:100CA000020405F580650194019C08FA0EF4D5F85C
:100CB000089029EA0408334CA0424CD004F5806423
:100CC000A0424AD004F58064A04248D0584548D09C
:100CD00004F50064A04246D004F58064A04244D0EC
:100CE00004F58064A04242D004F58064A04240D064
:100CF00004F58064A0423ED004F58064A0420CBF9D
:100D000009240A2404FA0EF444EA0804AC60D5432A
:100D10004F683468FF034CBF14432C4034604F6865
:100D20007468BF034CBF14432C4074604F68DCF8F8
:100D30000040FF024CBF14432C40CAF800404F68EB
:100D4000DAF80440BF0254BF05EA04022243CCF89B
:100D50000420013331E70024D4E70124D2E7022440
:100D6000D0E70324CEE70424CCE70524CAE7062411
:100D7000C8E70724C6E70824C4E700BF800000587E
:100D80000044025800000258000C025838B5104CBC
:100D9000E36813F0040FE36805D103F00703181AA2
:100DA00018BF012038BD23F007031843E060FFF7A8
:100DB00087FE054663689B0401D50020F2E7FFF734
:100DC0007FFE401BB0F57A7FF4D90120EAE700BF2F
:100DD000004802584B6A2DE9F04733B1B2F1406F39
:100DE00003D08B6A0468013B23618B690C6A002B7A
:100DF00067D00568002C35D08B68EB61CC694B6AF5
:100E000005688F69D1F820C0D1F83480D1F810E09E
:100E10000E68D1E90BA9A4B144EA0A04144344EAD8
:100E2000090444EA08042343CC6843EA0E0343EA76
:100E30000C0323433B434C69334343EA84436B61D4
:100E40002AE04AEA0904144344EA0804234343EA33
:100E50000E0343EA0C033B4333434E6943EA8646A1
:100E60006E612CE04E69CC69D1F80090B604D1F8DF
:100E700024804F6BD1E90BECACB11C43CB6814431D
:100E800044EA090444EA080444EA0E0444EA0C046F
:100E90003C431C4334436C61B2F1406F0FD0036894
:100EA0004A689A610BE043EA0903134343EA0803E3
:100EB00043EA0E0343EA0C033B4333436B61BDE853
:100EC000F08744B303688C68DC61CC69D1F8248076
:100ED00005688E69D1F820C04B6BD1F810E0D1E9DC
:100EE0000B796CB13C43144344EA09042343CC68B6
:100EF00043EA080343EA0E0343EA0C0323439AE759
:100F000047EA09042243134343EA080343EA0E0372
:100F100043EA0C03A0E7CD694B6A7DB12B43CD6A50
:100F2000046813432B430D6B2B434D6B2B43CD6850
:100F30002B434D6943EA85436361ADE7002BBED087
:100F4000CC6A0068234313430A6B13434A6B134371
:100F50004A6943EA82434361B1E72DE9F041069DC6
:100F600004460F461646984621688A683A4214BFDE
:100F700001220022B24201D1002011E06B1CF4D00A
:100F8000FFF79EFDA0EB0800A84201D8002DEBD191
:100F90000423012084F84130636C43F0010363644F
:100FA000BDE8F0817047000037B50446FFF788FDC3
:100FB0000546002C4FD094F84030012B4DD0012332
:100FC00084F8403094F8412002F0FF033AB984F8E5
:100FD00040302046FFF7E6FF41F28833A3642068E3
:100FE000A1680268013922F4706242EA01222021DC
:100FF00002600022A36C204600932B46FFF7ADFF52
:1010000020BB2168E569E3680A682B43256A22F062
:101010007F422B43656822F0D00243EA0563134305
:101020000B602168D4E905324D681343226943EA15
:1010300002430B4A2A4013434B602268136843F073
:10104000010313600123606484F84130002384F8B5
:10105000403003B030BD0120FBE70220F9E700BFBC
:10106000FEF8E0FF704710B50446A0B190F840309C
:10107000012B12D00268012380F84030136823F05E
:1010800001031360FFF7EEFF0020606484F8410065
:1010900084F8400010BD0120FCE70220FAE72DE9AA
:1010A000F34704468A469146FFF70AFD94F840301C
:1010B0008046012B34D00123022784F8403094F875
:1010C0004160F6B29E4229D100220346CDF800903D
:1010D00020216264204684F84170FFF73EFF0546F8
:1010E000A8B9024651462046FFF774FEDAF82430CC
:1010F0005BB9CDF800904346324639462046FFF7AB
:101100002CFF054618B92368DF6084F8416000238E
:1011100084F84030284602B0BDE8F0873D46F6E747
:101120000225F7E72DE9F341044688461746FFF705
:10113000C7FC94F840300646012B4DD001232568AA
:1011400084F8403094F84100C0B2984242D1002364
:101150006364B8F1000F38D0122384F841302B6952
:101160000133E3622B69C4F824800133A3626B6905
:1011700023F040636B61E36A9BB900973346012219
:1011800002212046FFF7E9FE10B923680222DA6047
:10119000012384F84130002384F8403002B0BDE8D8
:1011A000F08100973346012204212046FFF7D5FE47
:1011B0000028EDD1636A1B7885F82030636A01331B
:1011C0006362E36A013BE362D5E7636C43F00803C3
:1011D0006364E0E70220DEE70220DFE72DE9F34168
:1011E000044617468846FFF76BFC25680646AA6941
:1011F00094F84030012B50D0012384F8403094F80B
:101200004100C0B2984246D100236364B8F1000F98
:101210003CD0222384F841302B690133A3632B692E
:10122000C4F83080013363636B6923F0406343F09B
:1012300080636B6123689A61A36B9BB90097334607
:10124000012202212046FFF788FE10B923680222FE
:10125000DA60012384F84130002384F8403002B082
:10126000BDE8F08100973346012206212046FFF7B2
:1012700074FE0028EDD195F82020236B1A70236BA3
:1012800001332363A36B013BA363D5E7636C43F096
:1012900008036364E0E70220DEE70220DFE72DE9D0
:1012A000F7430446984689461646FFF709FC94F82A
:1012B00040300746012B45D0012384F8403094F894
:1012C0004150EDB29D423BD142230022CDF8008037
:1012D0002021626484F8413003462046FFF73DFE3A
:1012E00040BB2368204632689A62236872685A625B
:1012F0002368B268DA62216833690A6843F48003BC
:1013000022F4400213434FF000620B604946F36839
:10131000C9F82830FFF75EFDCDF800803B462A462D
:1013200008212046FFF719FE20B923680822DA6059
:1013300084F84150002384F8403003B0BDE8F083C6
:101340000220F7E70220F8E7F7B5044617460E46F5
:10135000FFF7B6FB94F840200346012A36D001225D
:1013600084F8402094F84120012A2DD100228221C6
:101370002046626484F84110A16C00912021FFF79F
:10138000ECFD0546D0B922687968136823F008039C
:101390000B4313607B68082B0AD123683A681A63F1
:1013A00010222368DA602268136843F48013136004
:1013B0004FF0406231462046FFF70CFD002384F8D1
:1013C0004030284603B0F0BD0225F7E70225F8E7D4
:1013D000F8B5044608B9012090E00368DD075ED443
:1013E0002368980700F1AC802368DA0623D5AB4B5D
:1013F0001A69996A02F03802082A07D0182A40F0C0
:10140000008101F00302012A40F0FB801B68DB052C
:1014100002D5E369802BDED1FFF758FB41F20303CD
:101420009E4A9842216A00F2E580536823F0F8430F
:1014300043EA816353602368190700F11B81236825
:101440009A0600F1408123685D0722D5944D2B68F0
:1014500043F480732B60FFF733FB06462B68DA05F5
:1014600040F15681A2688D4B012A40F058811A6FD5
:1014700042F001021A67A368002B00F06781FFF7B2
:101480001FFB864D064641F288372B6F9B0740F1C4
:101490005681606A002840F0698100202EE07F4B71
:1014A0001A69996A02F03802102A05D0182A0AD15E
:1014B00001F00302022A06D11B68990390D56368E4
:1014C000002B8DD187E76268744BB2F5803F16D14F
:1014D0001A6842F480321A6063680BB3FFF7F0FABF
:1014E0006E4D064641F288372B689A033FF578AF78
:1014F000FFF7E6FA801BB842F6D90320F8BD3AB9E7
:101500001A6822F480321A601A6822F48022E2E714
:10151000B2F5A02F1A68F4D142F480221A60D7E7FE
:10152000FFF7CEFA5D4D064641F288372B689B03E4
:101530007FF556AFFFF7C4FA801BB842F6D9DCE757
:10154000564B1A69996A12F0380203D0182A1BD137
:101550008E0719D11B685D0703D5E368002B3FF4A4
:101560003AAFFFF7B3FA41F203034C4A98422169BC
:10157000536895BF23F47C3323F0FE4343EA0133E1
:1015800043EA016353602FE7444DE2682B680AB3D6
:1015900023F0190313432B60FFF792FA06462B68DA
:1015A000580711D5FFF792FA41F2030322699842D6
:1015B0006B6895BF23F47C3323F0FE4343EA023388
:1015C00043EA02636B600FE7FFF77AFA801B022899
:1015D000E5D992E723F001032B60FFF771FA064685
:1015E0002B6859077FF500AFFFF76AFA801B0228C6
:1015F000F6D982E7D36823F07C5343EA0163D360D2
:1016000019E7E369254D23B32B6843F080032B6072
:10161000FFF756FA06462B68DF050DD5FFF756FA99
:1016200041F20303226A98420CD86B6823F0F84316
:1016300043EA82636B60FEE6FFF742FA801B0228F2
:10164000E9D95AE7EB6823F07C5343EA0263EB6085
:10165000F1E62B6823F080032B60FFF731FA064692
:101660002B68D8057FF5E7AEFFF72AFA801B022822
:10167000F6D942E76369094DA3B16B6F43F00103EB
:101680006B67FFF71DFA06466B6F9B073FF5D7AEFA
:10169000FFF716FA801B0228F6D92EE700440258FD
:1016A000004802586B6F23F001036B67FFF708FADD
:1016B00006466B6F9F077FF5C2AEFFF701FA801BEE
:1016C0000228F6D919E7A369804D83B12B6843F44A
:1016D00080532B60FFF7F4F906462B6898043FF51A
:1016E000B2AEFFF7EDF9801B0228F6D905E72B68AB
:1016F00023F480532B60FFF7E3F906462B68990427
:101700007FF5A1AEFFF7DCF9801B0228F6D9F4E6DD
:10171000FFF7D6F9801B64287FF6A0AEEDE63AB954
:101720001A6F22F001021A671A6F22F00402A1E672
:10173000052A1A6FF5D142F004021A6797E6FFF7FF
:10174000BFF9801BB8427FF6A0AED6E6FFF7B8F926
:101750005E4D064641F288372B6F98077FF599AEAC
:10176000FFF7AEF9801BB842F6D9C6E6574D2B6994
:1017700003F03803182B7AD02B68022823F08073EB
:101780002B6067D1FFF79CF906462B6899015BD463
:10179000AB6AA26A23F47C7323F003031343E26A67
:1017A00043EA0213AB62636BA26B013B013A5B023B
:1017B00012049BB202F4FE021343226B013AC2F3FD
:1017C00008021343E26B013A120602F0FE42134391
:1017D0002B63EB6A23F00103EB626B6BA26C23F4C7
:1017E0007F4323F0F80343EAC2036B63EB6A226C86
:1017F00023F00C031343EB62EB6A626C23F00203E9
:10180000324C1343EB62EB6A43F48033EB62EB6AD6
:1018100043F40033EB62EB6A43F48023EB62EB6A40
:1018200043F00103EB622B6843F080732B60FFF7FA
:1018300047F9054623689A013FF52FAEFFF740F9B7
:10184000401B0228F6D958E6FFF73AF9801B022818
:101850009BD952E6FFF734F904462B689B017FF5CC
:101860001CAEFFF72DF9001B0228F6D945E601282A
:10187000AA6A2B6B3FF442AE02F00301A06A8142D8
:101880007FF4A9ADC2F30512E16A8A427FF4A3ADE9
:10189000226BC3F30801013A91427FF49CAD626B65
:1018A000C3F34621013A91427FF495ADA26BC3F395
:1018B0000641013A91427FF48EADE06BC3F30663BB
:1018C0000138181A18BF012018E600BF004402585A
:1018D000464B10B51A6902F03802102A00F08480D5
:1018E000182A0CD00AB1424810BD1A68414812F0BB
:1018F000200FF9D01B68C3F3C103D840F4E7996AFD
:10190000986ADA6AC0F305105C6B0028ECD007EE29
:10191000900A02F00102C4F3CC00B7EE006AF8EEC0
:10192000E76A424307EE902A01F00302012AFAEE29
:10193000E97A02D00FD3022A48D01B6BC3F3080305
:1019400007EE103AB8EEC77A77EE277A77EE867A06
:101950009FED296A37E01A68920627D51968254A4B
:10196000C1F3C1011B6BCA40C3F3080307EE102A81
:10197000F8EEC75A85EEA67A06EE903AF8EEE66AD9
:1019800076EEA77A77EE867A184B67EE877A1B6B2E
:10199000C3F34623013307EE103AF8EEC76A87EE29
:1019A000A67AFCEEC77A17EE900A9DE71B6BC3F38D
:1019B000080307EE103AB8EEC77A77EE277A77EE8B
:1019C000867A9FED0E6A86EE267ADDE71B6BC3F3FF
:1019D000080307EE103AB8EEC77A77EE277A77EE6B
:1019E000867A9FED076AEEE706487DE700440258D5
:1019F00000093D000090D0030024744A0024744C78
:101A000020BCBE4B40787D012DE9F0410D460446D7
:101A100010B90120BDE8F081884A136803F00F0374
:101A20008B42C0F0928023685E0700F19A802368A1
:101A300018070BD5824A6069D16901F070018842AC
:101A400004D9D36923F070030343D3612368D90613
:101A50000BD57B4AA069D16901F4E061884204D9C1
:101A6000D36923F4E0630343D36123689A060BD55B
:101A7000734AE069116A01F07001884204D9136A5F
:101A800023F070030343136223689B070BD56C4A52
:101A9000E068916901F00F01884204D9936923F04D
:101AA0000F03034393612368DF0768D423689E070D
:101AB00000F19B80614A136803F00F03AB4200F210
:101AC000A2802368580700F1AA80236819070BD564
:101AD0005B4A6069D16901F07001884204D2D36920
:101AE00023F070030343D3612368DA060BD5544A0D
:101AF000A069D16901F4E061884204D2D36923F47A
:101B0000E0630343D36123689B060BD54C4AE0692D
:101B1000116A01F07001884204D2136A23F0700345
:101B200003431362FFF7D4FE454B464A9B69C3F358
:101B30000323D35C03F01F03D840434B1860434B8F
:101B4000BDE8F0411868FEF75BBF136823F00F0390
:101B50000B431360136803F00F038B427FF459AFFC
:101B600061E7374A2069916901F0700188427FF688
:101B70005EAF936923F070030343936157E7304BE3
:101B8000A1689A6922F470620A439A6161681A68CE
:101B900002291DD112F4003F3FF43BAF1A6941F214
:101BA0008838274E22F007020A431A61FEF788FFA1
:101BB00007463369626803F03803B3EBC20F3FF4A2
:101BC00075AFFEF77DFFC01B4045F2D9032021E72A
:101BD000032902D112F0007FDEE7012902D112F4BD
:101BE000807FD9E712F0040FD6E7154AE0689169C3
:101BF00001F00F018842BFF45DAF936923F00F033A
:101C00000343936156E7136823F00F032B431360DC
:101C1000136803F00F03AB427FF4FBAE51E7084AB1
:101C20002069916901F070018842BFF44EAF936959
:101C300023F070030343936147E700BF0020005285
:101C400000440258201E0008000000200C00002064
:101C5000DFF834D0002103E00C4B5B5843500431D3
:101C60000B480C4B42189A42F6D30B4A02E0002371
:101C700042F8043B094B9A42F9D3FEF783FE00F089
:101C800011F8FEF729FB704700000220401E0008F3
:101C9000000000203C0400203C040020D004002070
:101CA000FEE7000070B50D4E0D4D761BB61006D048
:101CB0000024013455F8043B9847A642F9D1094E57
:101CC000094D761B00F0A0F8B61006D000240134B0
:101CD00055F8043B9847A642F9D170BD341E000860
:101CE000341E00083C1E0008341E0008024B13B1CD
:101CF000024800F005B87047000000000D1D000804
:101D0000002301461A46184600F01EB838B50A4CA2
:101D10000A4D641BA4100AD004F18043013B05EB7B
:101D20008305013C55F804399847002CF9D1BDE8EA
:101D3000384000F06FB800BF401E00083C1E00088D
:101D4000704700BF704700BF2DE9F8432B4D064692
:101D5000286898460F469146FFF7F2FF284B1C680B
:101D6000D4F84831002B3DD05A681F2A0DDC02F10F
:101D7000010C16BB0232C3F804C0286843F8227075
:101D8000FFF7E0FF0020BDE8F8831E4B7BB34FF464
:101D9000C870AFF30080034648B3D4F8482100214F
:101DA000C0E900214FF0010CC4F848010A46C0F810
:101DB0008811C0F88C11002EDCD003EB82010124C5
:101DC000C1F88890D3F8880194402043022EC3F8CC
:101DD0008801C1F80881CDD1D3F88C110C43C3F828
:101DE0008C41C7E704F5A673C4F84831BCE72868FE
:101DF000FFF7A8FF4FF0FF30C5E700BF3804002011
:101E0000301E000800000000F8B500BFF8BC08BC98
:101E10009E467047F8B500BFF8BC08BC9E467047A8
:101E20000000000001020304010203040607080980
:101E300010000020ED1C0008BD02000899020008F7
:101E40000090D0030090D0030100000010000000BB
:101E500000000000FC02002064030020CC030020EE
:101E60000000000000000000000000000000000072
:101E70000000000000000000000000000000000062
:101E80000000000000000000000000000000000052
:101E90000000000000000000000000000000000042
:101EA0000000000000000000000000000000000032
:101EB0000000000000000000000000000000000022
:101EC0000000000000000000000000000000000012
:101ED0000000000000000000000000000000000002
:101EE00000000000000000000000000000000000F2
:101EF00000000000000000000100000000000000E1
:101F00000E33CDAB34126DE6ECDE05000B000000A5
:101F100000000000000000000000000000000000C1
:101F200000000000000000000000000000000000B1
:101F300000000000000000000000000000000000A1
:101F40000000000000000000000000000000000091
:0C2270000000000000000000AC04002092
:0200000490006A
:100000000000082481030090793400907D34009032
:100010008134009085340090893400900000000005
:1000200000000000000000000000000011E400904B
:100030008D34009000000000A1E4009035DB0090BA
:10004000D1030090D1030090D1030090D103009020
:10005000D1030090D1030090D1030090D103009010
:10006000D1030090D1030090D1030090D103009000
:10007000D1030090D1030090D1030090D1030090F0
:10008000D1030090D1030090D1030090D1030090E0
:10009000D1030090D1030090D1030090D1030090D0
:1000A000D1030090D1030090D1030090D1030090C0
:1000B000D1030090D1030090D1030090D1030090B0
:1000C000D1030090D1030090D1030090D1030090A0
:1000D000D1030090D1030090D1030090D103009090
:1000E000D1030090D103009000000000D1030090E4
:1000F000D1030090D1030090D1030090D103009070
:10010000D1030090D1030090D1030090D10300905F
:10011000D1030090D103009091340090D10300905E
:10012000D1030090D1030090D1030090D10300903F
:10013000D1030090D1030090D1030090D10300902F
:1001400000000000000000000000000000000000AF
:10015000D1030090D1030090D1030090D10300900F
:10016000D1030090D1030090D1030090D1030090FF
:10017000D1030090D1030090D1030090D1030090EF
:10018000D1030090D1030090D1030090D1030090DF
:10019000D1030090D1030090D1030090D1030090CF
:1001A0009D340090D1030090A9340090D1030090B9
:1001B000D1030090D1030090D1030090D1030090AF
:1001C000D1030090D1030090D1030090D10300909F
:1001D000D1030090D1030090D1030090D10300908F
:1001E000D1030090D1030090D1030090D10300907F
:1001F000D1030090D1030090D1030090D10300906F
:10020000D1030090D1030090D1030090D10300905E
:10021000D1030090D1030090D1030090D10300904E
:10022000D1030090B5340090C1340090000000006C
:10023000D1030090D103009000000000D103009092
:10024000D1030090D1030090D1030090D10300901E
:10025000D1030090D1030090D1030090D10300900E
:10026000D1030090D1030090D1030090D1030090FE
:10027000D1030090D1030090D10300900000000052
:10028000D1030090D1030090D10300900000000042
:0802900000000000D103009002
:1002A00010B5054C237833B9044B13B10448AFF3B0
:1002B00000800123237010BD605B0024000000005B
:1002C000E485029008B5034B1BB103490348AFF323
:1002D000008008BD00000000645B0024E4850290FB
:1002E00001F0FF01102A2BDB10F0070F08D010F8E7
:1002F000013B013A8B422DD010F0070F42B3F6D1EB
:10030000F0B441EA012141EA014122F007047FF003
:1003100000070023F0E80256083C85EA010586EA5A
:10032000010685FA47F5A3FA87F586FA47F6A5FA96
:1003300087F68EB9EED1F0BC01F0FF0102F00702A2
:1003400032B110F8013B013A83EA010313B1F8D14D
:100350000020704701387047002D06BF354603382E
:10036000073815F0010F07D1013015F4807F02BF67
:10037000013015F4C03F0130F0BC0138704700BFB8
:10038000DFF834D0002103E00C4B5B5843500431BC
:100390000B480C4B42189A42F6D30B4A02E000235A
:1003A00042F8043B094B9A42F9D308F08DFA27F042
:1003B00027FC02F059FB704700000824C0BE0290E1
:1003C0000000002460010024605B002440A303249B
:1003D000FEE70000704700BF704700BF08B501F09E
:1003E000D7FEBDE8084001F057BE00BF01F0D2BE05
:1003F00040687047416070474FF0E020084B094A61
:10040000D0F8FC1D41F08071C0F8FC1DD3F8B01F7E
:100410000A43C3F8B02F1A6842F001021A6070470D
:10042000001000E055CEACC5511A01EB5301B1FBF1
:10043000F3F07047014B5868704700BF001000E0B0
:10044000704700BF10B504460C2127F069F820461C
:1004500010BD00BF03680C4A1B6910B5044649B1C2
:1004600093420DD1094B5868A26863689B1A0344F4
:10047000636010BD934205D1044B5868A06010BD65
:100480009847F1E79847F9E735040090001000E03D
:10049000704700BF0000000000B585B008220023AF
:1004A000002069469FED067BCDE902238DED007BA0
:1004B00008F018F905B05DF804FB00BFAFF3008049
:1004C000E00100001001000030B585B000200D46AD
:1004D000144601A90190CDE9020008F091F90198B4
:1004E00020B10120DDE902232A60236005B030BD80
:1004F00010B50446042127F013F8204610BD00BFB4
:100500000821104808B508F0E1FE012801D10E4B82
:10051000186080210D4808F0D9FE012801D10A4B4E
:1005200058604021094808F0D1FE012801D1064B4E
:1005300098604021064808F0C9FE012801D1024B0D
:10054000D86008BD001802587C5B002400040258E3
:1005500000000258032827D8DFE800F01D140B0222
:10056000124B40211248DA68B2FA82F2520908F0BE
:10057000B3BE0E4B40210F489A68B2FA82F252097C
:1005800008F0AABE094B80210A485A68B2FA82F2E2
:10059000520908F0A1BE054B082107481A68B2FAB3
:1005A00082F2520908F098BE704700BF7C5B0024BD
:1005B000000002580004025800180258032827D8E7
:1005C000DFE800F01D140B02124B40211248DA68DC
:1005D000003A18BF012208F07FBE0E4B40210F48A1
:1005E0009A68003A18BF012208F076BE094B8021B4
:1005F0000A485A68003A18BF012208F06DBE054B40
:10060000082107481A68003A18BF012208F064BEA2
:10061000704700BF7C5B00240000025800040258B1
:1006200000180258032813D8DFE800F00E0A06026B
:100630004021084808F054BE4021074808F050BE49
:100640008021054808F04CBE0821044808F048BE47
:10065000704700BF000002580004025800180258FA
:1006600000207047012380F8781080F879307047B7
:10067000002070470A1E034B416418BF01221A7004
:10068000704700BF0397032400207047836B084620
:1006900003B11847704700BF4FF6FF70704700BFA7
:1006A000704700BF08B5094B1B888B4208D8084B20
:1006B0001B88934204D80748074B01801A8008BD65
:1006C000064B9E21064A074826F058FFF896032459
:1006D000FA960324FE960324009703247C86029056
:1006E000E08602902487029010B5044611F06EFA5D
:1006F00023682046D3F8AC30BDE81040184700BF4F
:1007000001F040BE01F044BE10B501F029FF1248CF
:100710000023C0F88430BFF34F8FD0F8803043F609
:10072000E074C3F34E3CC3F3C90E4FEA4C1C0CEA11
:100730000401734641EA8372013BC0F874225A1CDB
:10074000F8D1ACF1200C1CF1200FF0D1BFF34F8F8A
:10075000BFF36F8F10BD00BF00ED00E001F0EEBDF4
:1007600001F0FCBF01F0E6BF01F0F2BD10B5044698
:1007700010F0A8FD60680368BDE810401B691847C9
:1007800010F076BC10B50446882126F0C9FE20463C
:1007900010BD00BF90F87A301BB1406803681B6839
:1007A00018471846704700BF90F8782090F834300A
:1007B0009A420B4B1A780BD04AB90A4A4FF0010CF7
:1007C0000949108883F800C00B880880138070479F
:1007D000002AFCD0034A4FF0000C0349F1E700BFA8
:1007E000FC960324FA960324F89603244068044AEE
:1007F00003689B69934201D100207047184700BFEE
:1008000061060090A9B10264003AC16318BF0122D9
:100810000C490A7002680C49D2F88C208A4206D131
:10082000191E0A4A436418BF012111707047194606
:100830001047074B40F2D221064A074810B526F070
:100840009DFE00BF029703247506009003970324C2
:100850006C870290A48702902487029008B50368F1
:100860000446174DD3F880309847236820469B6F85
:10087000984701F031F8236820461B6F9847012202
:100880000421104808F028FD012280210E4808F0BC
:1008900023FD01220D48114608F01EFD01F01CF851
:1008A000236820461B6FAB4207D111F08FF92368F4
:1008B0002046D3F8AC309847F0E79847EEE700BF02
:1008C000E906009000000258000C02580028025867
:1008D00038B5044601F04CFF17482368E16BD3F8A4
:1008E0008850226C854219D1F9B1003A1349D3F8E6
:1008F0008C3018BF012212488B421249027011D16C
:10090000114B012261641A7004F17C052846FFF73F
:1009100073FD0123256184F8703038BD094B2046F2
:10092000A847F1E720469847EEE7084B40F2D2216E
:10093000074A084826F022FE050800907506009038
:1009400002970324000000D0039703246C870290D1
:10095000A48702902487029008B5074B28B1186835
:10096000012111F04DF9012008BD0146186811F070
:1009700047F9012008BD00BF049703244069704770
:1009800090F84000704700BF036B0BB10120704727
:10099000C06A003818BF0120704700BF80687047E8
:1009A000704700BF04308C460FC88CE80F007047BA
:1009B000704700BF08B5034A4FF4DE71024B03488D
:1009C00026F0DCFDD0880290CC8802902C89029021
:1009D00010B50446482126F0A3FD204610BD00BFF7
:1009E0002DE9F04F4A4C83461D46C068022383B070
:1009F000484F4FF4707C23610307474B18BF20F02A
:100A00000F00DFF840A1454E18BF1030DFF83881E5
:100A1000DFF8389120600009E06000EB4000C00181
:100A200000900020C4F804C0386018603C4BCAF83D
:100A300000001860DBF81030307003F00F033074E2
:100A4000C3F11003A360374CDAF800302560364C50
:100A500006EB0313354D206035485B68016035486F
:100A6000354C02604FF4504234489FED277B86EDB1
:100A7000027B86ED067B09F05FFDDBF84430C8F8A9
:100A800000302B6813B1D9F8003063BBD8F80000F0
:100A9000037A2BB9204B1B681B01F35C012B24D07C
:100AA0003B68012B06D1DAF800301B01F35C0BB96F
:100AB0002B6813B3022323602368022B09D0236819
:100AC000012BDED100232B60C9F8003003B0BDE854
:100AD000F08F1B4B4FF0FF3118680DF093F923682E
:100AE000012BCED1EEE70123E5E7D9F80030002B4A
:100AF000D6D103681B699847D2E702210F483B60B3
:100B000009F062FE0223D6E70000000000000000AA
:100B1000985B0024C45B0024905B00240800002440
:100B2000945B0024B45B0024C05B0024BC5B002405
:100B3000C85B0024CC5B0024B85B0024C493002471
:100B4000D45B0024D05B0024B05B00248C5B0024C9
:100B5000F8B5036801292A4E0446DB6A38BF012133
:100B6000B3420D4638D1836899422AD86B1EE26998
:100B7000206B02EB031750B3A36B0F2B37D903681D
:100B800007F10806DB6831469847206B1022616B3D
:100B900003681B699847B0B1236BE663BBB1626B16
:100BA000937A517A1B0443EA0123117AD27A0B43D8
:100BB00043EA0263226A6561043A1A44A261F8BDFD
:100BC000A3681D46D2E70D2384F84030E4E707F11F
:100BD0001003E26AD358EDE798478542C6D92368E7
:100BE000DB6AB342ECD0204698470546BEE70920B1
:100BF000044B054A972184F84000044826F0BEFCC7
:100C00009D0900907C890290908902902C89029025
:100C10002DE9F04F0446006B83B01546A669002805
:100C200000F0AD80A36B072B40F2B0800368314623
:100C3000DB689847206B0822616B03681B69984743
:100C4000002800F09180A769206B3A1DE663002818
:100C500000F0A580921B0837D4E90D63B118B25C8F
:100C60008E7891F801C0360446EA0C261643CA78FD
:100C700046EA0266B342C0F0898003683946DB6801
:100C80009847206B3246616B03681B69984710B91F
:100C90000D2384F84030616BE763002D58D0444B3E
:100CA0000022444F1D60444B3A60DB68434D03EB28
:100CB0004303DFF834A1DFF834B1DB014048CBF85F
:100CC000002000933F4BCAF800202A701A602A7453
:100CD000DAF8003002603C4A05EB03133B48116030
:100CE0003B4A5B6816604FF450423A4E3A4CDFF88C
:100CF0000081DFF800919FED2C7B85ED027B85ED77
:100D0000067B09F019FC17E0D8F80000037A2BB92C
:100D1000DBF800301B01EB5C012B1DD03B68012B85
:100D200006D1DAF800301B01EB5C0BB93368FBB17C
:100D30000223236023685BB93368002BE4D0D9F821
:100D40000030002BE0D0012323602368002BF3D078
:100D5000012003B0BDE8F08FD9F80030002BDDD1C1
:100D600003681B699847D9E70D2384F840306AE788
:100D7000022116483B6009F027FD0223D9E7321D06
:100D8000E16A06F108038E58194486E70920134BDF
:100D9000134A972184F84000124826F0EFFB3E46A4
:100DA000EEE700BFAFF3008000000000000000008D
:100DB000B45B0024C45B0024985B0024080000247A
:100DC000C05B0024945B0024C85B0024C49300240F
:100DD000CC5B0024BC5B0024B85B00247C890290BF
:100DE000908902902C890290D05B0024905B0024B3
:100DF000B05B00248C5B002443692DE9F047002B95
:100E000000F098800546006BAC69002800F08280F5
:100E1000AB6B072B40F2838003682146DB68984761
:100E2000286B0822696B03681B69984700286DD0FE
:100E3000AB69286B1A1DEC6300286DD0121B6C6B1C
:100E4000A118A25C8C784E78240444EA062414434A
:100E5000CA7844EA02640D2743F2300639E0AB6BEE
:100E6000072B5CD903682146DB689847286B08226A
:100E7000696B03681B69984708B985F84070286B4F
:100E8000AA69EC63002853D0121B696B8B18895C2C
:100E90009C7993F805A0240493F804E093F801905A
:100EA00044EA0A2493F807C093F8038041EA092131
:100EB0009A7844EA0E0442EA082344EA0C6446F2B3
:100EC0006432B14208BF93420CBF012100211AD005
:100ED000AB691C44AB6A04F108029A420ED26B69FA
:100EE0000934013324F00104C5E905340028B6D1E2
:100EF000EB6A1A19195B53885468E0E701222B6AE0
:100F00000021C5E905230846BDE8F0870D2385F8D3
:100F100040308DE7221D2346E96A8C589BE7092063
:100F2000074B084A972185F84000074826F026FB22
:100F30001446DDE7054BDD21054A034826F01EFB7C
:100F40007C890290908902902C890290D489029029
:100F5000208A029043692DE9F041002B00F09B802C
:100F60000446006B0E46A569002861D0A36B072BD1
:100F700040F2978003682946DB689847206B082277
:100F8000616B03681B69984700284CD0206BA169EE
:100F9000E56300284BD001F1040C8A1C636BACEBB9
:100FA000050C521B4D1B03EB0C0E13F80C7003EBDE
:100FB000050813F805C098F801509EF801804CEA26
:100FC000052C9EF802509EF803E02D0445EA082502
:100FD0003D4345EA0E6503EB020E9B5C9EF8012043
:100FE00043EA02234A19A76A02F1080EBE4513D24A
:100FF00043F23007BC4524D146F26437BB4220D1CE
:101000001DBB72460132636A22F001029A42A2615C
:1010100002D00120BDE8F0810122236A0020C4E94A
:101020000523BDE8F0810D2384F84030AEE70D467E
:10103000E26A2946002032F805C02A4453885568E0
:10104000D0E7A261002DDDD1DBE701F10807A76140
:10105000F0B1A36B9D4224D803683946DB689847FA
:10106000206B2A46616B03681B69984710B90D23F2
:1010700084F84030616BE76326B133462A46204648
:10108000FFF7AEFCD4E9053201332A446361B9E7C6
:10109000E16A3944F0E7074BA921074A074826F0DF
:1010A0006DFA0920064B074A972184F8400003484F
:1010B00026F064FAD4890290548A02902C89029016
:1010C0007C8902909089029010B5002204460E4B54
:1010D00001201146E263236084F84020C4E9052220
:1010E000C4E90722C4E90922C4E90B22C4E90D229C
:1010F000C4E90322C4E901220CF034FE034B02468A
:1011000020461A6010BD00BF788B0290D45B00248B
:101110002DE9F04F0021066B83B00546816180F810
:101120004010002E00F0AA81836B472B40F2028210
:1011300033683046DB689847286B4822696B036840
:101140001B699847002800F0CE8000232E6BAF6902
:10115000B146EB63002E00F09281D5F83480042272
:10116000BE4908EB070B584626F098FC002840F0D3
:10117000EA8107F108000422B949A861404426F039
:101180008DFC002840F0FA8107F10C0A0422B549D1
:1011900008EB0A00C5F818A026F080FC0190002892
:1011A00040F0E2819BF812409BF8112024049BF848
:1011B000133044EA02249BF81020144354EA0364D9
:1011C00000F0CB8107F114000422A749404426F027
:1011D00065FC002800F08B800623DDF804B007F1E1
:1011E000180085F8403040440422A04926F056FCFF
:1011F000002800F08580072385F8403054440834E7
:10120000B9F1000F15D0AB6B0B2B40F29381D9F8DD
:10121000003021464846DB689847286B0C22696BF2
:1012200003681B69984710B90D2385F840302E6B71
:10123000EC6395F840908E4F04F10808002E41D0E1
:10124000EB6B0422686B3946A8EB0303184426F0C5
:1012500025FC00283ED0B9F1000F3ED1AB6AA34275
:1012600040F2A7800434002E46D0EA6BD5E90D1376
:10127000A41A0B2B01EB0402095D947850784FEA15
:101280000444D27844EA002444EA010444EA0264B3
:10129000444440F24F81336821463046DB6898472A
:1012A000286B0C22696B03681B69984710B90D23E2
:1012B00085F840302E6B04F1080895F84090EC63F7
:1012C000002EBDD1E86A04223946404426F0E6FBF0
:1012D0000028C0D1B9F1000F6BD00A2385F8403047
:1012E00003B0BDE8F08F0D2385F840302DE707F1FE
:1012F00018004FF0010B76E7EB6A1C5944449BE75A
:10130000BBF1000F3FF47AAF07F12001B9F1000FF4
:1013100000F0F480EB6B6A6BC91AC3F13000DFF8A0
:1013200058C112F8018002EB010EC3F14001C3F174
:10133000440338449EF801B039441F449EF80230FB
:101340009EF803E01B0443EA0B2343EA080343EA45
:101350000E63ACFB03C302EB000C9B096B609CF8B3
:1013600002309CF801801B0412F800E09CF803C0D6
:10137000501843EA082343EA0E0343EA0C63AB60C8
:10138000837890F801C01B04515C43EA0C230B43A3
:10139000C17843EA0163D119EB608B7848781B046C
:1013A000D25D43EA00231343CA7843EA02632B6108
:1013B00024E704F10C030434AB61002E00F0B2808A
:1013C000EB6BE41AD5E90D1204F1020C671C11F85D
:1013D00004E0E01C11F80C30032A11F807904FEAE2
:1013E000034343EA092343EA0E0311F800E043EA0A
:1013F0000E6343446B6211F80C3011F807C00F5DA7
:101400004FEA0344095C44EA0C2444EA070444EA32
:101410000164444440F28E80336821463046DB68E4
:101420009847286B0422696B03681B69984700285A
:101430005AD02B6BEC63002B00F0AA80686B04225F
:101440000C4926F02BFB002866D10122AB69EC6128
:101450006A612B6203B0BDE8F08F00BFB08A0290D2
:10146000688B0290608B0290588B0290408B0290A8
:10147000488B0290508B0290D34D62103746D5F8BE
:101480002C800422444908EB0704204626F006FB82
:10149000002858D107F1080004224049A8614044BF
:1014A00026F0FCFA002869D107F10C0A04223C4915
:1014B00008EB0A00C5F818A026F0F0FA83460028C9
:1014C00052D12469002C48D007F114000422354978
:1014D000404426F0E3FA58B907F118004FF0010B29
:1014E00040444FF000097FE60D2385F84030A0E727
:1014F000062307F1180085F84030F1E7EB6A5A58E7
:101500003B442949A1FB021292096A601A6BAA6046
:101510001A6CEA605B6C4AE70B2385F8403003B035
:10152000BDE8F08FE86A035943446B6204594444B0
:10153000204484E709201D4B1D4A972185F840006F
:101540001C4826F01BF803201B4B1C4A40F22511B7
:1015500085F84000174826F011F8194B4FF49D719B
:10156000164A144826F00AF80520164B134A4FF481
:101570009A7185F840000F4826F000F80420124BBD
:101580000E4A40F22D1185F840000A4825F0F6FF7A
:10159000E86A204453E700BFB08A0290688B02904B
:1015A000608B0290588B0290D34D62107C89029020
:1015B000908902902C890290B88A0290D48A029075
:1015C000348B02901C8B0290048B029010B4002488
:1015D000C0E90A2104635DF8044BFFF799BD00BF21
:1015E00010B50B680446002208469B68C4E90B212D
:1015F000984703462046A362BDE81040FFF788BD28
:101600004B68012B15D0022B0BD04BB9CB68580778
:1016100024D18B685A0703D023F0070308338B606B
:101620007047CB681A07F4D023F00F031033CB6058
:10163000EFE7CB681A0703D023F00F031033CB601A
:101640008A68100703D022F00F0210328A601B094B
:101650000549120902FB03F30B60704723F00703EF
:101660000833CB60D5E700BFAC5B002410B40C4C52
:101670000C4A236812680B449342236002D35DF83E
:10168000044B7047D21A084B1C68B2F5504F2144E6
:1016900028BF4FF450425DF8044B196008F0C6BFF4
:1016A000C05B0024CC5B0024C85B0024F8B5224C4E
:1016B0000646224D2368206821491B0105EB0010D6
:1016C000204FD1F800C082602068FA6805EB001056
:1016D000C0F80CC00868104408602168013121601E
:1016E0000121E95423688B4201D900232360236838
:1016F0001B01EB5C83B9236802EB4202304605EB29
:101700000315D201696808F095FF0F4B1B681A7A20
:101710000AB99B7A4BB1F8BD0221304608F04EFF62
:101720000A4B0121FA681960E5E7094B1868BDE822
:10173000F8400CF09BBB00BFD05B002408000024E5
:10174000945B0024985B0024B05B0024C45B0024FD
:10175000D45B002472B6FEE7014B01221A60704789
:10176000BC5B002470B51B490223C5681A4C0A688B
:1017700063632B01194EB3FBF2FC02FB1C324B6876
:10178000366803FB0CFCCB68A6EB030E0E694FEA30
:101790000C1C754506FB02F216D3896841EA035119
:1017A00061640F49C3F11E034068002409681B01EE
:1017B0001144094A6144D16313640A490A4B146114
:1017C000D161D060136070BD190541F010016164F2
:1017D000E7E700BF985B002400100052AC5B0024D8
:1017E000B45B00240B0009FF010201000C4B002137
:1017F00001701A68816001321A601A68012A00D9E2
:101800001960084B08491B68C968C2685B1A9A428C
:1018100002D3064B01221A60054B18680CF026BB58
:10182000905B0024AC5B0024985B00248C5B00245C
:10183000D45B00240121002208B508460CF092FA7E
:101840000B4B186040B10022042101200CF03AFB40
:10185000084B186030B108BD074B2821074A0848DB
:1018600025F08CFE074B2C21044A054825F086FE06
:10187000DC5B0024D85B0024B48B0290008C0290C7
:10188000308C0290748C0290024B4FF0FF3118683C
:101890000CF0B8BADC5B0024014B18680CF0E6BA17
:1018A000DC5B0024024B002118680CF0ABBA00BFCF
:1018B000DC5B0024014B18680CF0D8BADC5B002418
:1018C0000348002303491A4600680CF039BB00BFE7
:1018D000D85B00242800002410B5002382B0074CF8
:1018E0001A4601A920680CF06DFB4FF0FF3300226F
:1018F00001A920680CF066FB02B010BDD85B002483
:1019000003685B6C184700BF0120704705494FF022
:101910008062054B0160C3F88820BFF34F8FBFF38F
:101920006F8F7047148E029000E100E00F4B82B081
:101930000F49D3F8D4200F4842F010020862C3F8D0
:10194000D420D3F8D42002F010020192019ADA6F69
:1019500042F01002DA67DA6F22F01002DA67064B03
:101960004FF080629A6002B0704700BF0044025896
:101970005C930024591D009000E100E040F2EF303C
:10198000704700BF09494FF08062094B10B50160F4
:101990000446C3F88820BFF34F8FBFF36F8F40F624
:1019A000A85125F0BDFD204610BD00BF148E029049
:1019B00000E100E010B504464FF0FF31D0F8A40D6F
:1019C0000CF08AF9606803681B68984708B9637A65
:1019D00063B91549154A0B681B01D35C012B14D060
:1019E000D4F8A40DBDE810400CF09AB9237A002B6E
:1019F000EFD12268204684F8A03D536A9847D4F876
:101A0000A40DBDE810400CF08BB9A07A0028E7D1F6
:101A1000207A0028E4D1086884F8A03D02EB001089
:101A20002372FFF79FFEDBE7905B00240800002491
:101A300090F8A03D10B5044653B903689B6A9847D7
:101A40001C491D4A0B681B01D35C012B14D010BD2F
:101A5000037A2BBB606803681B689847034600281D
:101A6000F5D1627A002AF2D02268204684F8A03D9F
:101A7000536ABDE810401847104800680028E6D1B6
:101A8000A07A0028E3D1207A0028E0D1086884F801
:101A9000A03D237202EB0010BDE81040FFF762BECC
:101AA00004490022044B0868227203EB0010FFF780
:101AB0009DFECFE7905B0024080000248C5B00248F
:101AC00038B58B7F0A2B3ED8DFE803F03B062A3D72
:101AD0003D3D3D06060606000124B1F814C0C88A43
:101AE0004A8B1C4B40EA0C40A2EB0C025C6358642E
:101AF0000869D8631A640D68082D13D00022DC61D0
:101B0000154C1A61C9680A0A4809C1F3C40102F4F4
:101B1000784200F4FC6002430A439A631C6038BDBB
:101B20000024DAE79A611A615C620C4A0C7F42EA8F
:101B300004620B4CDA61CA681A625861D8601C6092
:101B400038BD0224C9E7074B8721074A074825F01B
:101B500015FD00BF00100052010203000900010042
:101B600001020200B88C0290D48C0290208D029069
:101B7000F8B591F81DE0BEF10B0F00F2C180DFE86F
:101B80001EF0630065004C00BF00BF00BF00BF0037
:101B90000C000C000C000C000C00052591F81EC078
:101BA000BCF10B0F00F2AC80DFE80CF0524B0EAA38
:101BB000AAAAAA0606060606ACF10703032B00F242
:101BC000A5800526012701E0002637468B8A4A8B2F
:101BD0000C8BC88AD21AE41A40EA0340524B1A64AA
:101BE0009A611C614A685F6358640869D863DA6067
:101BF0000A68802A3BD012D8202A2CD0402A2AD02A
:101C0000042A69D10A7F494945EA026242F4003256
:101C1000DA615E6258611960F8BD0025BEE7B2F571
:101C2000807F67D0B2F5007F56D10C7F404A42EAF0
:101C30000462DA613D4AC96819625E6258611A60DD
:101C4000F8BD01263746C1E70225A7E70125A5E72C
:101C500002263746BAE70B7F334A45EA036343F46B
:101C60000033D361314B566250611360F8BD8A680E
:101C7000141DDC620C7F117845EA046545F40035DB
:101C8000DD615E625861B1B951880124D869294A81
:101C90000139024042EA0122DA61234AD36943F062
:101CA0002003D361D3699B06FCD41023936024B333
:101CB0001E4B1360F8BD01292ED15188FF3CD86915
:101CC0001C4A01F1FF3118BF0124024042EA0122FF
:101CD00042F01002DA61E0E70A7FE645124B45EA7E
:101CE000026514BF144A40F2012245F40035DD615B
:101CF0001A60F8BD0C7F114A99E70F4B1360F8BDCD
:101D00000F4B66210F4A104825F038FC0C4B8721F9
:101D10000E4A0D4825F032FC0D4B40F211110D4AD0
:101D2000094825F02BFC00BF001000520102020000
:101D300009000200EF00FFFF010201000A0002009B
:101D4000B88C0290648D0290208D0290D48C029009
:101D5000B08D0290CC8D0290254B26491B6810B5A2
:101D60005C6823685A698A4220D194F8A02D92B108
:101D7000237A002B32D1606803681B6898470346BA
:101D800098B9627A8AB12268204684F8A03D536AE5
:101D9000BDE8104018479B6A204698471649174AE5
:101DA0000B681B01D35C012B04D010BD2046BDE89D
:101DB00010401047124800680028F6D1A07A002889
:101DC000F3D1207A0028F0D1086884F8A03D23726E
:101DD00002EB0010BDE81040FFF7C4BC064900222A
:101DE000064B0868227203EB0010FFF7FFFCC2E706
:101DF00004970324311A0090905B0024080000240B
:101E00008C5B002470B5104B0646044600250C3050
:101E1000602235727572706044F8203B214610F0E4
:101E200033F8214606F55A63CD6024318B42FBD14D
:101E300086F8A05D0020C6F8A45D0BF00DFF0346F8
:101E40003046C6F8A43D70BD148E0290034A136854
:101E5000DB07FCD423239360704700BF00100052BF
:101E600030B4114C2568ED07FCD423250904FF2B61
:101E7000A56041F001014FF0020565636164E06314
:101E80000BD00A49656241EA03630949E3612262B2
:101E90006061E060216030BC7047E561029A054BEB
:101EA000A263236030BC704700100052090001009B
:101EB0000100020001000300012070473820704734
:101EC000C1EBC10100EBC10008307047C1EBC1019B
:101ED00000EBC100083070470120704742F22860D3
:101EE000704700BF42F2286303FB010008307047CF
:101EF00042F2286303FB010008307047012070475D
:101F00001020704700EB01100830704700EB011003
:101F100008307047084601F06FBF00BF034B10B593
:101F2000044603600EF0FDFD204610BDCC8E0290ED
:101F3000054B10B5044603600EF0F3FD402120462A
:101F400025F0EEFA204610BDCC8E0290034B10B562
:101F5000044603600EF0E5FD204610BD988E029009
:101F6000064B10B5044603600EF0DBFD42F2306113
:101F7000204625F0D5FA204610BD00BF988E02906D
:101F8000034B10B5044603600EF0CBFD204610BD98
:101F9000648E0290054B10B5044603600EF0C1FD3F
:101FA0001821204625F0BCFA204610BD648E029010
:101FB00010B504460C490D4A42F25C6004F500532A
:101FC00021602044C3F85C260EF0ABFD2046084B90
:101FD00040F82C3F0EF0A5FD2046064B40F8143F7C
:101FE0000EF09FFD204610BD008F0290CC8E029017
:101FF000988E0290648E029010B50C4C0C4A04F539
:1020000000530C490C48C3F85C2621600EF089FD92
:1020100020460A4B40F82C3F0EF083FD2046084B2B
:10202000BDE8104040F8143F0EF07BBDE45B002497
:10203000CC8E0290008F029040820024988E0290F5
:10204000648E029010B504460F4A104942F25C605B
:1020500004F5005321602044C3F85C260EF061FDB6
:1020600020460B4B40F82C3F0EF05BFD094B204601
:1020700040F8143F0EF055FD204642F2FC7125F069
:102080004FFA204610BD00BFCC8E0290008F029008
:10209000988E0290648E02902DE9F04182B0002467
:1020A00001F076FA054601F077FA2346014622460A
:1020B0002846009417F08CFA294B2A4A20462A4CCD
:1020C0001A6002F075F8294817F0EAF92368BFF39F
:1020D0005B8FDB0705D5264802B0BDE8F041FEF76F
:1020E000F7BB204625F01EFA0028F4D0214D224FE0
:1020F000224B05F1140007F1440605F12C082B6072
:10210000EF6068602E61C5F808800EF00BFD1C4B77
:1021100040466B610EF006FD1A4B3846EB620EF03E
:1021200001FD05F50053184A03F29C60C3F85C26D4
:1021300004F088F92A4607F14001304604F078F9A6
:10214000304601F059FE114825F036FA204625F0B8
:10215000F5F9074802B0BDE8F041FEF7B9BB00BF92
:102160006897032414920024E05B00242C000024D0
:102170008C910024E45B002440820024008F0290B4
:10218000648E0290988E0290CC8E0290F91F00907F
:10219000704700BF0148FEF761BB00BF8C9100246F
:1021A00070B5254B254C264E264D23603046FFF753
:1021B00029FE28461BF0E4FC234B00224FF4F0706C
:1021C0004FF48871DA621A865A6583F858205A6685
:1021D000DA6683F87020C3E903421C4C9C661C4CF1
:1021E00023601C4C20801C4C20801C4C1C482180EF
:1021F00001801C4C1C491D48C3E901654FF48075E2
:10220000C3E905229D64C3E90722C3E90922C3E9A2
:102210000E22C3E91022C3E91322C3E91722227058
:1022200019601349C3F8802083F83420C3F8842050
:10223000D967C3E91D2070BD6C860290E08300243D
:10224000E4830024189200248C91002401000001F2
:1022500004970324F8960324FE960324FA96032495
:1022600000970324FC960324FC87029000000101E0
:10227000448602900148FFF749BB00BFE483002475
:1022800090F8252012B103685B691847704700BFBA
:102290000020704781807047C1807047018170477E
:1022A00041817047704700BF704700BF704700BF53
:1022B000704700BF704700BFB0F806C00368A2EBCC
:1022C0000C02B0F804C05B6DA1EB0C0112B209B2B4
:1022D000184700BF13684FF6FF7C4FF0FF31A0F89E
:1022E0000CC0C0E907311060704700BF90F825208E
:1022F0001AB190F8242002B118607047002070478E
:1023000003468A8801209A80704700BF704700BF4B
:1023100080F82610704700BF90F82600704700BF75
:102320004FF0000C8A68C0F800C04260704700BFE0
:10233000002202604260704700207047034B9022E9
:1023400083F85A2383F85823704700BF00E100E068
:10235000094A0A49D3680A48C3F30A03013B9BB2FE
:102360000B801169C1F30A01013901801364536BB9
:1023700043F0010353637047001000509E92002405
:102380009C920024014BD3F8AC0070470010005021
:10239000024B0122C3F8AC105A6270470010005083
:1023A000C0E90C1281637047704700BF00EB8100E9
:1023B000114640680368DB68184700BF10B5044643
:1023C000482125F0ADF8204610BD00BF11B990F8A6
:1023D0002900704708B5034A4FF4B871024B03480F
:1023E00025F0CCF8208F02900C8F0290AC900290D8
:1023F00021B94068114603681B6B1847034B4FF423
:10240000B571034A034810B525F0B8F80C8F029057
:10241000F0900290AC90029009B9C068704708B57E
:10242000024A7921024B034825F0A8F8A0920290B5
:102430000C8F0290AC90029010B50C4649B9114631
:102440001A464368C4601C681846A368BDE810407B
:102450001847034B9021034A034825F08FF800BF2B
:102460000C8F029054940290AC90029021B9C0E974
:102470000411C0E90632704708B5034A8221034BB4
:10248000034825F07BF800BF309602900C8F029035
:10249000AC9002900EF028BE90F83D3003B9704722
:1024A00010B54FF0FF310446406C0BF015FC4FF4B3
:1024B0008073A4F83D3010BD38B50C4605464FF08A
:1024C000FF31406C04EBC4040BF006FC686C0BF0AD
:1024D00027FC002305EB840484F8283095F8283085
:1024E0000BB92B6BAB6338BD70B51C4C05460EF0B9
:1024F00007FE94F829308BB994F82A3073B9012378
:10250000206C84F83D300BF0B1FC94F83E30F3B908
:1025100068680368BDE870401B691847D4E9053056
:10252000E169226900FB03F301FB02F29342E6D367
:1025300094F83C0038B19B1AB3FBF1F2994298BF72
:1025400002F1FF326262012384F82E30D7E7606C1B
:102550000BF0E6FB002384F83E30D9E7E892002434
:102560000EF08CBD0EF0EDBE14484369D90323D59F
:10257000002310B5C0F88430BFF34F8FD0F88030FF
:1025800043F6E074C3F34E3CC3F3C90E4FEA4C1C50
:102590000CEA0401734641EA8372013BC0F87422DD
:1025A0005A1CF8D1ACF1200C1CF1200FF0D1BFF374
:1025B0004F8FBFF36F8F10BD704700BF00ED00E07D
:1025C00010B5002933D10446052A09D8DFE802F006
:1025D0000F1E222703090022012380F8292003620D
:1025E00010BD003B18BF012380F82D3010BD40689E
:1025F00003681B6998470028F2D00122002384F861
:10260000292084F82C20C4E9043310BD002380F86D
:10261000293010BD00220362C0E9042210BD00224F
:102620000121036280F82A10C0E9042210BD034B87
:10263000A221034A034824F0A1FF00BF0C8F02909F
:10264000EC970290AC90029010B539BB90F829300D
:10265000044623B994F82B3063B9012010BD124908
:102660004369096891F86B100B44436194F82B306F
:10267000002BF2D0A168104613685B69116398477C
:10268000002394F82C0084F82B300028E5D194F82E
:102690002D30002BE2D184F8290010BD034BD0214E
:1026A000034A044824F06AFF049703240C8F029025
:1026B000C0990290AC90029090F8283070B5FBB9A8
:1026C0000122856BC360A0F82D2005F5872480F8D2
:1026D0002820036143618361C36103624362C0F8E0
:1026E0002930D0E90C263244944210D80B4A856038
:1026F0008463184681F83430C1F836200B6370BD0E
:10270000074B40F2C511074A074824F037FF074B33
:102710005221074A044824F031FF00BFE0012001A4
:10272000609B0290909B0290AC900290189D02904A
:10273000549D0290084B4FF08062C3F88820BFF38D
:102740004F8FBFF36F8F4FF08072C3F88820BFF3B5
:102750004F8FBFF36F8F704700E100E0034B4FF0E6
:1027600080629A604FF080729A60704700E100E0EA
:1027700038B504460EF0D1FC23685D6E13F092FD6F
:1027800001462046A8472368164AD3F88850954248
:102790001CD1154A0125D3F88C3002F57F3113483E
:1027A000C4E90F21124A0570934216D10023114A41
:1027B0006364137064684FF487200F4B0F49104A0D
:1027C0004C6459601A63C3E90D0238BD0D4A0023F9
:1027D0002046A2F57F31A847ECE700212046984724
:1027E000E8E700BF0508009000FC03D0029703242F
:1027F0007506009003970324E8920024A092002419
:1028000000F40BD000F807D010B5144C236823B3A4
:10281000134B144A1B6C11888B420AD008F028FF16
:10282000206803681B6A98470020BDE81040FDF748
:10283000C5BE0D4B198808F01BFF226892F86A305C
:10284000013382F86A30FFF73BF820680FF0BEF9D9
:102850000020BDE81040FDF77DBE10BD04970324A5
:10286000001000509E9200249C9200242DE9F04319
:10287000DFF8B88083B001264FF47077044624E077
:102880002B6828465B6A98470023236229684FF427
:10289000907300974FF4F072D1F814902846A16815
:1028A000C847236984F82C0001332361002833D002
:1028B0002B689B6A434531D1686901380022E0608A
:1028C00084F82E20606C0BF02BFA4FF0FF31206C57
:1028D0000BF098FA4FF0FF31606C0BF0FDF994F8B3
:1028E0002E30002BEED0216A656884F82B60002919
:1028F000C6D1636A002BC9D02A68D2E90991414543
:102900000FD16869C1182846C8472369616A002247
:102910000B4462622361B9E70120CFE7284698475C
:10292000CBE728468847636AECE700BF7D09009043
:10293000014808B5FFF79AFFE892002438B515481A
:102940000025FEF7C1FB144C14494FF480732A464E
:10295000012021602946A385A387E560A56284F84C
:102960002E50A56384F83E50C4E90455C4E90655C9
:10297000C4E90855C4E90C55C4E91055C4E901552A
:102980000BF0F0F90346284623640BF065F9606408
:1029900038BD00BFA0920024E8920024209F02903E
:1029A000014900200DF000BC5909009008B56420D1
:1029B0000BF044F9FBE700BF70B59EB04C2200213C
:1029C0000AA825F063F82022002102A825F05EF86D
:1029D000022009F08BF8224B0021224A0191D96A8A
:1029E00021F00101D962DB6A03F0010301939369CD
:1029F00043F440439361936903F440430193019B83
:102A000093699904FCD501224FF4803302240826EF
:102A100000250AA81794CDE90A230522A023CDE9B1
:102A200015230423CDE913441893CDE91946CDE9C4
:102A30001B5509F003F940233F22214607930DEB74
:102A4000060002920322099304950392CDE90563DF
:102A50004FF48063089309F085FC1EB070BD00BF81
:102A6000000400580048025880B5002498B00125A1
:102A70001B270326CDE90B44CDE90D4406F01EF8D3
:102A80004FF01053D3490BA80C93D34BADF82C50F7
:102A9000CDE90D1306F030F84FF010430BA88DF878
:102AA00037400C93ADF83A408DF82D508DF83470C6
:102AB00006F022F802230BA8ADF837608DF82D3010
:102AC0001A238DF8343040F20113ADF83A3006F095
:102AD00013F84FF480730BA8ADF83A400424ADF816
:102AE00037304FF050438DF834700C938DF82D60D3
:102AF00006F002F818230BA88DF837608DF83430F3
:102B00008DF82D408DF83A5005F0F6FF204605F07F
:102B1000E3FFB24A536913F4003311D1BFF34F8F6F
:102B2000BFF36F8FC2F85032BFF34F8FBFF36F8F79
:102B3000536943F400335361BFF34F8FBFF36F8F7B
:102B4000A648436913F4803324D1C0F88430BFF31E
:102B50004F8FD0F8805043F6E076C5F34E34C5F37E
:102B6000C905640104EA06012B4641EA8372013B70
:102B7000C0F860225A1CF8D1203C14F1200FF1D18A
:102B8000BFF34F8F436943F480334361BFF34F8FEB
:102B9000BFF36F8F05F0DAFEFFF70EFF62B6002479
:102BA0008F4DC0218F480F94224601264FF0030914
:102BB00008274FF004084FF0050ACDE90B44CDE992
:102BC0000D44D5F8E03043F48063C5F8E030D5F823
:102BD000E03003F480630193019BD5F8E03043F0CB
:102BE0004003C5F8E030D5F8E03003F0400302932D
:102BF000029BD5F8E03043F48073C5F8E030D5F897
:102C0000E03003F480730393039BD5F8E03043F086
:102C10001003C5F8E030D5F8E03003F0100304935A
:102C2000049BD5F8E03043F00203C5F8E030D5F856
:102C3000E03003F002030593059BD5F8E03043F440
:102C40000073C5F8E030D5F8E03003F40073069364
:102C5000069BD5F8E03043F00803C5F8E030D5F81E
:102C6000E03003F008030793079BD5F8E03043F00A
:102C70002003C5F8E030D5F8E03003F020030893D6
:102C8000089BD5F8E03043F08003C5F8E030D5F874
:102C9000E03003F080030993099BD5F8E03043F05E
:102CA0000103C5F8E030D5F8E03003F001030A93E2
:102CB0000A9B06F011FB224680214B4806F00CFBD4
:102CC00022460821494806F007FB012248481146E0
:102CD00006F002FB22464421464806F0FDFAC023D6
:102CE0000BA94048CDE90B36CDE90D4906F0F4F8C3
:102CF00080230BA93C480B930E94CDE90C6406F09D
:102D0000EBF80BA93948CDF838900B97CDE90C6456
:102D100006F0E2F80BA93648CDE90B66CDE90D4483
:102D200006F0DAF80BA93348CDE90B86CDE90D445E
:102D300006F0D2F8CDF838904FF040090BA92D4895
:102D4000CDF82C90CDE90C6406F0C6F8D5F8D43057
:102D50002246052133437A20C5F8D430D5F8D43043
:102D6000254D33400093009B05F04AFE7A2005F084
:102D700085FE342221460BA824F088FE1F4B2A2012
:102D8000AF612B60272340F20A274FF4047C6B616C
:102D90000B23AC8685F83640C5E9070340F21B13C8
:102DA0002846C5E9097340F21D130227C5E90BC384
:102DB000C5E90144C5E9034408F0B4FA4FF4F073DF
:102DC00022460BA90C93284615934FF488730C4D9B
:102DD0000E9317E0120000030100010100ED00E076
:102DE0000044025800040258000C0258001802580F
:102DF00000280258000002581C94002400100050C3
:102E00005C9300241693FF230B9410934FF480637C
:102E10000D94129311941494ADF85C408DF85E40BB
:102E20000F97CDF84CA008F051FB354B2846EC65C8
:102E30002B60EC60C5E91147C5E91344C5E91544A9
:102E4000C5E9014705F000FF3146284605F0D4FFEB
:102E50002C484FF4C0730BA9CDF83CA00B97CDF8CC
:102E60003480C0F80C80C0F814908462C0E9063445
:102E70004FF4006303624FF48053436207230C93C3
:102E80000E93214B03601023CDE910770361C0E955
:102E900001640AF03FFB204605F0EAFA204605F0FF
:102EA00031FBFDF797FA194B1948036007F00EFA4A
:102EB0001848194B848003600662C0E9054405F098
:102EC0004DFEFDF78BFAFDF787FA0AF041FE134A33
:102ED000214613480AF068FE124B134A2146186037
:102EE00012480AF061FE124B0546124A214612486A
:102EF0001D600AF059FE114B18600AF03BFEFEE718
:102F0000001000529C9500244041005200300052B5
:102F1000C493002438930024004C02589C9F0290D4
:102F2000AD29009034930024789F0290ED03009027
:102F300030930024C09F029031290090D095002446
:102F4000034B02689A4200D0704705F02FBD00BFC6
:102F500000100040704700BF0B4B00220F216FF0A4
:102F6000010010B4D3F8F44083B044F00204C3F875
:102F7000F440D3F8F43003F002030193019B03B053
:102F80005DF8044B05F03CBD004402580A4B026852
:102F90009A4200D07047A3F5006382B0D3F8E020D6
:102FA00042F40022C3F8E020D3F8E03003F4002319
:102FB0000193019B02B07047004C02580F4B02680E
:102FC0009A4200D070470E4B5A200022052110B5BE
:102FD000D3F8D44082B044F01004C3F8D440D3F8FE
:102FE000D43003F010030193019B05F009FD5A2032
:102FF00002B0BDE8104005F041BD00BF0010005216
:10300000004402583F4B02689A4200D0704770B5A6
:103010003D4B11223D4E82B03D4D0446726030461C
:10302000D3F8D4203B4942F02002C3F8D4208022B8
:10303000D3F8D430326203F02003316001930023CF
:1030400001993361C6E902324FF0007272622022A8
:10305000C6E90633C6E90D33B2624FF400334FF4CC
:10306000A042C6E90B2313236B600223736108F0AF
:1030700021FB00283AD100222448114608F0B8FB71
:1030800000283CD12022002326631320EA61AA6293
:103090004FF420322049AB602B62AB633464C5E946
:1030A0000C23C5E904330823C022C5E90010AB6135
:1030B0004FF4A0414FF000731548E962EA606B627B
:1030C00008F0F8FAC0B900221148114608F090FB48
:1030D00078B965637920002205212C6405F090FC05
:1030E000792002B0BDE8704005F0C8BCFFF732FFA0
:1030F000C1E7FFF72FFFECE7FFF72CFFE3E7FFF750
:1031000029FFBFE70030005200440258C494002455
:103110003095002400020052C001005270B5BAB0D0
:1031200000210446C0220AA80991CDE90511CDE984
:10313000071124F0ABFC4A4B22689A4201D03AB006
:1031400070BD022305224FF000540025A0211693E4
:103150001492532217934FF400630AA81591CDE9F6
:103160000A45CDE9182309F0D5FB002874D13D4B61
:10317000022400250E26D3F8E42005A93A4842F09F
:103180000802C3F8E420D3F8E42002F00802009219
:10319000009AD3F8E02042F48062C3F8E020D3F82C
:1031A000E02002F480620192019AD3F8E02042F418
:1031B0008072C3F8E020D3F8E02002F4807202921B
:1031C000029AD3F8E02042F40072C3F8E020D3F86A
:1031D000E02002F400720392039AD3F8E02042F058
:1031E0008002C3F8E020D3F8E030089403F08003B5
:1031F00009960493FC23049A0593CDE9064505F04E
:103200006BFE4DF2032305A918480593CDE9064549
:10321000CDE9084605F060FE4FF6FB7305A914489A
:103220000593CDE90645CDE9084605F055FE4FF476
:10323000007305A90F480996CDE90534CDE9075477
:1032400005F04AFE2A460521582005F0D9FB5820F2
:1032500005F014FC3AB070BDFFF77CFE87E700BFB5
:103260000010005000440258002802580020025864
:1032700000240258001C025836480023D0B50168CB
:10328000B8B0CDE90233CDE90433069309B138B0C3
:10329000D0BD0123B82203600AA824F0F7FB4FF049
:1032A0008072002308A8CDE9082309F033FB002829
:1032B0004CD1294B4FF6837002210C24D3F8D42033
:1032C0000026032742F48052C3F8D420D3F8D43028
:1032D000069403F48053CDE90201019302A91F482B
:1032E000019BCDE9046705F0F7FD48F23312022394
:1032F00002A91B480694CDE90223CDE9046705F035
:10330000EBFD4CF20372022302A916480694CDE9A4
:103310000223CDE9046705F0DFFD4FF63F020223EB
:1033200002A911480694CDE90223CDE9046705F00E
:10333000D3FDE022022302A90C480694CDE90467DC
:10334000CDE9022305F0C8FD38B0D0BDFFF702FE7D
:10335000AFE700BFD895002400440258001002587F
:1033600000180258000C025800140258001C0258A1
:10337000134B1A6802B1704710B5124A01244FF678
:10338000837111481C60D2F8D43023F48053C2F802
:10339000D43005F0D3FE48F233110C4805F0CEFED0
:1033A0004CF203710A4805F0C9FE4FF63F01094887
:1033B00005F0C4FEE0210848BDE8104005F0BEBE9F
:1033C000D4950024004402580010025800180258F6
:1033D000000C025800140258001C02580F2801D992
:1033E0000120704730B501468BB0002204463620DC
:1033F00005F006FB362005F041FB1A4B1A4A6946D8
:1034000002A81460D3F8E82042F01002C3F8E820C4
:10341000D3F8E83003F010030193019B09F05AF947
:10342000079BBBB909F0C6F8104B0022104CA3FB58
:103430000013104D40F2E73120469B0C2560A2603E
:10344000013BC4E9031263600AF0D6F830B10120F1
:103450000BB030BD09F0AEF84000E5E720460AF0B9
:1034600081F9F5E7004402587800002483DE1B430D
:10347000DC95002400100040704700BFFEE700BF4D
:10348000FEE700BFFEE700BFFEE700BF704700BFDA
:1034900001480AF0CBB900BFDC950024014807F0D1
:1034A000B3BF00BF1C940024014805F011BC00BF4D
:1034B0005C930024014807F093BE00BFC49300242E
:1034C000044808B508F054FA0348BDE8084008F07D
:1034D0004FBA00BF30950024C494002401207047E7
:1034E00008B524F087FB162203464FF0FF301A6020
:1034F00008BD00BF08B524F07DFB16230360FEE77E
:1035000070B5161E07DD0C468D19AFF3008004F868
:10351000010BA542F9D1304670BD00BF70B5161E33
:1035200007DD0C468D1914F8010BAFF30080AC4297
:10353000F9D1304670BD00BF4FF0FF30704700BF7B
:103540004FF4005300204B60704700BF01207047CC
:1035500000207047704700BF10B50446042123F0D7
:10356000DFFF204610BD00BF012908B504D00229A5
:103570000AD029B1002008BD00F068FE406808BDEF
:1035800000F064FE006808BD00F060FE806808BDC1
:1035900000487047F89F02900C20704769B102689C
:1035A00030B583B0002495680DF1030301AA01949E
:1035B0008DF80340A84703B030BD0846704700BFF0
:1035C000C0897047008A7047C088704780887047FC
:1035D000807A00F07F007047807AC009704700BF92
:1035E000704700BF10B50446082123F099FF20461C
:1035F00010BD00BF704700BF00F5987308684968A8
:1036000003C37047704700BF704700BF41607047F9
:103610004FF0000C8A68C0F800C04260704700BFDD
:10362000704700BF704700BF0549002200F5A27334
:10363000C0F85021C0F84031C0E95201704700BFC6
:10364000453B009001230372704700BF704700BFE5
:10365000704700BF704700BF704700BF0146406819
:10366000036810315B6E18470146406803681031EB
:103670001B6E1847704700BFC268034641684FEA97
:10368000620C01EB6200D20701D49B68184751F825
:103690000C209B68D358184743683BB183680BB133
:1036A00001207047C06800F001007047184670475D
:1036B00010B504460C2123F033FF204610BD00BF97
:1036C00010B50446102123F02BFF204610BD00BF8B
:1036D00010B504464FF4AE7123F022FF204610BD12
:1036E00010B50446382123F01BFF204610BD00BF53
:1036F00010B50446282123F013FF204610BD00BF5B
:1037000010B512F0CFFD0368BDE81040DB6B184721
:1037100010B50446807A82B00130637AC0B2984214
:10372000A07205D9012200232272A37202B010BD3B
:10373000B4F90C20002114F09FFB10F0010283B2B9
:1037400027D1E081174A218B1088C21A091A6068B4
:1037500012B20B4469462283ADF800200022ADF876
:1037600004300368ADF802200F4A1B69B2F900204B
:10377000ADF806209847A37A012BD7D10B4B1B78C5
:10378000002BD3D012F08EFD02B0BDE8104012F035
:103790008FBD4FF6FF710028D8BF0A4613449BB275
:1037A000E381CFE7F8960324FA96032402970324D3
:1037B0002DE9F04FD0E9555383B00746A86801932F
:1037C00003681B6A9847B0F5647FC0F0BA806868E8
:1037D00003681B6A98470F2840F2BF80E8680368B7
:1037E0001B6A9847372840F2B280DFF8A89112F0A0
:1037F00059FD043012F0A3FDD9F8000040B1036870
:10380000DB689847D9F8000010B103681B68984737
:10381000DFF88481D8F8000000287FD003685B6956
:103820009847D7F83C01002873D003685B68984735
:10383000D8F8000010B103681B689847D7F83C011E
:1038400010B103689B689847E868002102688A46BF
:10385000526A9047444A00F1100B04460260142259
:103860005146C0F804A0A0F80920282280F808A03A
:10387000A0F80EA0584624F009F93C4AA8684FF475
:103880008071B2F90020C4F814A0A2812283384AC2
:10389000B2F9002062830268526AA186354921612B
:1038A00051469047064602F0B5FE686851460368E7
:1038B0005B6A98470546314602F036FEC9F800407B
:1038C000C7F83C51C8F80060002D2CD02B1D019A80
:1038D000304613603368AA60DB68F56398472B684D
:1038E00028461B6898472146304614F0BFFA2368E3
:1038F000214A1B69934218D16068594603681B6EC0
:10390000984723681D4A5B69934215D103B0BDE80F
:10391000F08FD8F8000000288DD195E7D7F83C014A
:10392000002882D190E72B46D1E7204698472368AC
:10393000124A5B699342E9D0204603B0BDE8F04FDC
:1039400018470F4BA3210F4A0F4823F017FE0F4BC8
:10395000A5210C4A0C4823F011FE0D4BA421094A65
:10396000094823F00BFE00BF7CA70290F8960324C1
:10397000FA96032484A6029069360090753600906A
:10398000F8A0029088A10290B4A20290A0A3029095
:10399000FCA202904C970324489703242DE9F04F92
:1039A000D0E9554A074681B0A06803681B6A98476A
:1039B00042F22763984240F29E80606803681B6A67
:1039C00098470F2840F2A380E06803681B6A984775
:1039D0000B2840F29680DFF8649112F063FC04300B
:1039E00012F0ADFCD9F8000040B10368DB689847DD
:1039F000D9F8000010B103681B689847DFF84081D0
:103A0000D8F80000002863D003685B699847D7F8AE
:103A10003C01002857D003685B689847D8F800003D
:103A200010B103681B689847D7F83C0110B10368D0
:103A30009B689847E068002103688B465B6A98475B
:103A4000364B0546C0F804B080F808B05946A06867
:103A50002B6003685B6A9847064603F0B1FA60681A
:103A6000594603685B6A98470446314603F030FACA
:103A7000C9F80050C7F83C41C8F80060002C2CD0B1
:103A8000231DCAF8003030463368C4F808A0DB684C
:103A9000F4639847236820461B68984729463046B8
:103AA00014F0E4F92B681E491A698A4217D15B6940
:103AB0001C4A93421AD112F0F5FB0368DB6B01B08C
:103AC000BDE8F04F1847D8F800000028A9D1B1E7A9
:103AD000D7F83C0100289ED1ACE72346D1E7284621
:103AE00090472B680F4A5B699342E4D0284601B0A7
:103AF000BDE8F04F18470C4BA3210C4A0C4823F0AB
:103B00003DFD0C4BA521094A094823F037FD0A4B1E
:103B1000A421064A064823F031FD00BF58A70290B1
:103B20000936009001370090F8A0029044A402905A
:103B3000B4A20290A0A30290FCA202904C9703248E
:103B4000489703242DE9F04FD0E9554A074681B044
:103B5000A06803681B6A9847B0F5867FC0F09E8016
:103B6000606803681B6A98470F2840F2A380E068EA
:103B700003681B6A98470B2840F29680DFF8609133
